:020000040000FA
:020000000528D1
:08000800442883168601013033
:100010008500073081008312860108308C0004308F
:100020008E0005180D28051C1328051C42284F209A
:100030008C0B1528861708308C006D204F20051872
:1000400042288C0B1E288F016D200E308100A030BD
:100050008B006D2005088D006D200D080502031D25
:1000600042286D200D080502031D422803140D1CB3
:1000700003108F0C6B208E0B29288F0E0F08860023
:1000800067200D2886010D28051C86010B1109002B
:100090000000000000000000000000000800000058
:1000A000A4305B28000040305B281F305B28000034
:1000B0000E305B2805309000900B5C280800C8309B
:1000C0006E2864306E2832306E2814306E280A3064
:1000D0006E2805306E2802306E2801309100F9300C
:1000E00090000000900B7128910B6F280800C83019
:1000F00082286430822832308228143082280A30E4
:1001000082280530920064309100F93090000000A0
:0E011000900B8728910B8528920B83280800FE
:02400E00F13F80
:00000001FF
