:020000040000FA
:10000000831686010F3085008312860105080F399B
:100010008C00031924284A2005080F390C02031DFF
:1000200024288D0186158614272006104E200C1CCE
:10003000252827208C0C8D0A0D08043C031D172849
:100040000610861086114A2006282A201A2806142F
:100050004E20080006104E2008000000000000009E
:1000600000000000000008000000A430402800004C
:10007000403040281F30402800000E304028053016
:100080008E008E0B41280800C83053286430532856
:1000900032305328143053280A305328053053285F
:1000A0000230532801308F00F9308E0000008E0B93
:1000B00056288F0B54280800C830672864306728FA
:1000C00032306728143067280A30672805309000DE
:1000D00064308F00F9308E0000008E0B6C288F0B7F
:0800E0006A28900B6828080053
:02400E00F13F80
:00000001FF
